:020000040000FA
:020000000528D1
:040002000034003492
:06000A00831603138601BA
:10001000FF30850083160313F1308F00831603131E
:100020008701831603130F3087000730890083167A
:1000300003170030890088018801831203138601A9
:100040008312031387018901F801FA01091C292889
:100050002C28891C31282E28F40131280508F400A9
:100060003328F40A74083428F000FF307005F100DA
:10007000F201F3010A307102031C4728F100F20A71
:100080000A307202031C3A28F201F30A3A28730E6E
:10009000720786007620710E870076207128262848
:1000A0007808642086007620091C57282C28F80A36
:1000B0000C307806031D4B285D28F801FA0A05303C
:1000C0007A06031D5028052882078134C334E7349B
:1000D000FF347E343C3418343C347E34FF34E7340F
:1000E000C334FF307406031D26285028FF30F50066
:1000F0007430F6000A30F700F70B7C28F60B7B28EB
:10010000F50B782808006430F5003230F600053031
:10011000F700F70B8928F60B8828F50B85280800CF
:02400E0034225A
:02401000FF3E71
:00000001FF
